{
  "contractName": "Purchase",
  "abi": [
    {
      "constant": true,
      "inputs": [],
      "name": "getPurchasers",
      "outputs": [
        {
          "name": "",
          "type": "address[10]"
        }
      ],
      "payable": false,
      "stateMutability": "view",
      "type": "function"
    },
    {
      "constant": true,
      "inputs": [
        {
          "name": "",
          "type": "uint256"
        }
      ],
      "name": "purchasers",
      "outputs": [
        {
          "name": "",
          "type": "address"
        }
      ],
      "payable": false,
      "stateMutability": "view",
      "type": "function"
    },
    {
      "constant": false,
      "inputs": [
        {
          "name": "shoeID",
          "type": "uint256"
        }
      ],
      "name": "buyShoe",
      "outputs": [
        {
          "name": "",
          "type": "uint256"
        }
      ],
      "payable": false,
      "stateMutability": "nonpayable",
      "type": "function"
    }
  ],
  "bytecode": "0x6060604052341561000f57600080fd5b6102dd8061001e6000396000f300606060405260043610610057576000357c0100000000000000000000000000000000000000000000000000000000900463ffffffff1680630409eb851461005c57806312923b65146100ad5780631315879f14610110575b600080fd5b341561006757600080fd5b61006f610147565b6040518082600a60200280838360005b8381101561009a57808201518184015260208101905061007f565b5050505090500191505060405180910390f35b34156100b857600080fd5b6100ce60048080359060200190919050506101c8565b604051808273ffffffffffffffffffffffffffffffffffffffff1673ffffffffffffffffffffffffffffffffffffffff16815260200191505060405180910390f35b341561011b57600080fd5b61013160048080359060200190919050506101fd565b6040518082815260200191505060405180910390f35b61014f610272565b6000600a806020026040519081016040528092919082600a80156101be576020028201915b8160009054906101000a900473ffffffffffffffffffffffffffffffffffffffff1673ffffffffffffffffffffffffffffffffffffffff1681526020019060010190808311610174575b5050505050905090565b600081600a811015156101d757fe5b016000915054906101000a900473ffffffffffffffffffffffffffffffffffffffff1681565b6000808210158015610210575060098211155b151561021b57600080fd5b33600083600a8110151561022b57fe5b0160006101000a81548173ffffffffffffffffffffffffffffffffffffffff021916908373ffffffffffffffffffffffffffffffffffffffff160217905550819050919050565b61014060405190810160405280600a905b600073ffffffffffffffffffffffffffffffffffffffff1681526020019060019003908161028357905050905600a165627a7a7230582091b352f35c24dc012a88d5202b9e28102056da6401206e9a71ca1f5b914fb8c50029",
  "source": "pragma solidity ^0.4.17;\r\n\r\n/**\r\n * The Shoe contract does this and that...\r\n */\r\ncontract Purchase {\r\n\taddress[10] public purchasers;\r\n\r\n\tfunction buyShoe(uint shoeID) public returns (uint) {\r\n\t\trequire(shoeID >= 0 && shoeID <= 9);\r\n\t\tpurchasers[shoeID] = msg.sender;\r\n\t\treturn shoeID;\r\n\t}\r\n\r\n\tfunction getPurchasers () public view returns(address[10]) {\r\n\t\treturn purchasers;\r\n\t}\r\n\t\r\n}\r\n\r\n",
  "sourcePath": "D:\\Blockchain\\Max-Blockchain\\contracts\\Purchase.sol",
  "compiler": {
    "name": "solc",
    "version": "0.4.18+commit.9cf6e910.Emscripten.clang"
  },
  "schemaVersion": "1.0.1",
  "updatedAt": "2018-01-11T23:18:57.605Z"
}